:1003E4005F5F5F5F5665725F312E325F323032304D
:1003F400303730365F5F0073707370736F736F7371
:10040400707571747274727572767376757C7F7F91
:100414007D7F787B7574717572766F6D8BFBFCCF05
:100424003F4853686B7070757378757B79807F87EC
:10043400888D8D918E8F88867E7D75746D6F6A6EC2
:100444006A6E6B6F6D716E726F7471746F747073AA
:0B0454006F736F736F736F74707471BF
:0905E30002090014010B00C10122
:1002A900E4F594F593F592F591F596759518F5B2EF
:1002B900F5B1F5B4F5B3F5CAF5C9F5CCF5CBF5E269
:1002C900F5E112059F1205B61205C9E4F510D20031
:1002D900D2A5AF0A1204B4A2B2B39201E508B4FDE3
:1002E9000EE4F508C2007BFF7A0379E412053F307A
:1002F9000353300050C203300146050BAF0B7E009B
:10030900AC09AD0A12003F7C007D0A120051D3EFFF
:100319009463EE648094804003E4F50BAF0B7E0098
:10032900AC09AD0A12003F7C007D0A12005174FB32
:100339002FF58274033EF583E493FF1200038005D1
:0F034900AF1012045F0000000000000000808D64
:030023000201F9DE
:1001F900C0E0C0F0C083C082C0D075D000C000C0CC
:1002090001C002C003C004C005C006C00730986E13
:10021900C298859908E508D394004013E5089433FA
:10022900500D75090085080AAF0A1204B4804FE51C
:1002390008D394EF400EE50894F85008E508241017
:10024900F510803AE508B4FF04C2008031E508B42E
:10025900FE04D2008028E50864FD6022E508B4FCAC
:1002690004C2A58019E508B4FB04D2A58010E508ED
:10027900B4FA04D2018007E508B4F902C201309941
:1002890004C299C202D007D006D005D004D003D049
:1002990002D001D000D0D0D082D083D0F0D0E032CB
:10045F008F1112000E7E00C006C007AF1112000EE2
:10046F00EFFDD0E02DFFD0E03400FEC006C007AF97
:10047F001112000EEFFDD0E02DFFD0E03400FEC0D2
:10048F0006C007AF1112000EEFFDD0E02DFFD0E038
:10049F003400FEEF7802CEC313CE13D8F9F50D8ECC
:0504AF000CFF02000338
:10000E00EF4488F5BC00000000E5BC30E4FB53BCB7
:04001E00EFAFBD2261
:10056400EF4488F5BC00000000E5BC30E4FB53BC5C
:10057400EFAFBDEF75F004A4ADBE7C002DFFEC35EC
:03058400F0FE2264
:10059F00759850438E01438E0475D77075D6FF43FF
:0705AF008E10D2ACD2AF2286
:0F05C900759D01E4F5BD75BC807F02FE020587BC
:080003002002FDD2028F9922B8
:10058700EF1FAC0670011E4C600D0000007D0B7C58
:07059700BEDCFEDDFC80E983
:01059E00223A
:1005B600538E7F5389F0758ACD758CC2C28DD28CCD
:0305C600D2A92295
:1004B400EFD3944640047E468002AE07AF06EFC3F6
:1004C400940150047E018002AE07AF06E4FCFDFEF9
:1004D400FB7AC079A8F8120087E47BE87A03F9F87C
:1004E4001204FBE47B0CFAF9F81204FBC3E49FFF4B
:0604F400E49E8F8AF58CE6
:0104FA0022DF
:03000B000205D813
:0B05D800D203B29175920175910132BF
:10053F008B118A128913AB11AA12A913120026600C
:10054F00130513E5137002051214F9120026FF129A
:05055F00000380E22210
:03000000020358A0
:0C035800787FE4F6D8FD75812002039F39
:10002600BB010689828A83E0225002E722BBFE02D8
:09003600E32289828A83E493220B
:10003F00EF8DF0A4A8F0CF8CF0A428CE8DF0A42ED5
:02004F00FE228F
:10005100C2D5EC30E709B2D5E4C39DFDE49CFCEECA
:1000610030E715B2D5E4C39FFFE49EFE1200D6C36C
:10007100E49DFDE49CFC80031200D630D507C3E467
:060081009FFFE49EFE2239
:10008700E88FF0A4CC8BF0A42CFCE98EF0A42CFC18
:100097008AF0EDA42CFCEA8EF0A4CDA8F08BF0A496
:1000A7002DCC3825F0FDE98FF0A42CCD35F0FCEBF5
:1000B7008EF0A4FEA9F0EB8FF0A4CFC5F02ECD39BA
:0F00C700FEE43CFCEAA42DCE35F0FDE43CFC2227
:1004FB00C2D5E830E70FB2D5E4C39BFBE49AFAE42C
:10050B0099F9E498F8EC30E717B2D51205311201DE
:10051B0067E4C39BFBE49AFAE499F9E498F8800347
:10052B0012016730D50DE4C39FFFE49EFEE49DFDF1
:04053B00E49CFC221E
:100364000202A9E493A3F8E493A34003F68001F204
:1003740008DFF48029E493A3F85407240CC8C3339A
:10038400C4540F4420C8834004F456800146F6DF69
:10039400E4800B01020408102040809005E3E47E11
:1003A400019360BCA3FF543F30E509541FFEE4935E
:1003B400A360010ECF54C025E060A840B8E493A325
:1003C400FAE493A3F8E493A3C8C582C8CAC583CA50
:1003D400F0A3C8C582C8CAC583CADFE9DEE780BE08
:0105EC00000E
:1000D600BC000BBE0029EF8DF084FFADF022E4CC0E
:1000E600F875F008EF2FFFEE33FEEC33FCEE9DECD7
:1000F600984005FCEE9DFE0FD5F0E9E4CEFD22ED1D
:10010600F8F5F0EE8420D21CFEADF075F008EF2F66
:10011600FFED33FD4007985006D5F0F222C398FD57
:050126000FD5F0EA22F4
:10012B0075F008758200EF2FFFEE33FECD33CDCC8B
:10013B0033CCC58233C5829BED9AEC99E58298400E
:10014B000CF582EE9BFEED9AFDEC99FC0FD5F0D6EB
:10015B00E4CEFBE4CDFAE4CCF9A88222B800C1B915
:10016B000059BA002DEC8BF084CFCECDFCE5F0CB53
:10017B00F97818EF2FFFEE33FEED33FDEC33FCEB8C
:10018B0033FB10D703994004EB99FB0FD8E5E4F947
:10019B00FA227818EF2FFFEE33FEED33FDEC33FC34
:1001AB00C933C910D7059BE99A4007EC9BFCE99A28
:1001BB00F90FD8E0E4C9FAE4CCFB2275F010EF2F6D
:1001CB00FFEE33FEED33FDCC33CCC833C810D7076D
:1001DB009BEC9AE899400AED9BFDEC9AFCE899F8A8
:0E01EB000FD5F0DAE4CDFBE4CCFAE4C8F9223B
:00000001FF
